:020000040800F2
:10000000F009002085020008653D0008113600084F
:10001000C13C0008E91600082D450008000000005A
:10002000000000000000000000000000193F000870
:100030008117000800000000B53D00081B3F0008C4
:100040009F0200089F0200089F0200089F0200080C
:100050009F0200089F0200089F0200089F020008FC
:100060009F0200089F0200089F0200089F020008EC
:10007000ED1600089F020008F91600089F0200080C
:100080009F0200089F0200089F0200089F020008CC
:100090009F0200089F0200089F0200089F020008BC
:1000A0009F0200089F0200089F0200089F020008AC
:1000B0009F0200089F0200089F0200089F0200089C
:1000C0009F0200089F0200089F0200089F0200088C
:1000D0009F0200089F0200089F02000815450008C3
:1000E0009F0200089F0200089F0200089F0200086C
:1000F0009F0200089F0200089F0200089F0200085C
:100100009F0200089F0200089F0200089F0200084B
:100110009F0200089F0200089F0200089F0200083B
:100120009F0200089F0200089F0200089F0200082B
:100130009F02000800000000000000009F0200086D
:100140009F0200089F0200089F0200089F0200080B
:100150009F0200089F0200089F0200082145000836
:100160009F0200089F0200089F0200089F020008EB
:100170009F0200089F0200089F0200080000000084
:10018000000000009F0200080000000000000000C6
:100190009F02000800000000000000009F0200080D
:1001A0000000000000000000000000009F020008A6
:1001B0009F0200089F0200089F0200089F0200089B
:1001C0009F02000800F002F800F04CF80AA090E846
:1001D000000C82448344AAF10107DA4501D100F002
:1001E00041F8AFF2090EBAE80F0013F0010F18BF83
:1001F000FB1A43F0010318477446000094460000C0
:10020000103A24BF78C878C1FAD8520724BF30C842
:1002100030C144BF04680C60704700000023002414
:1002200000250026103A28BF78C1FBD8520728BF06
:1002300030C148BF0B607047662904F0BB82642957
:1002400000F0E680002070471FB504F0AEFA00F021
:1002500079FC04000020002104F01AFAE0601FBDC0
:1002600010B510BD00F06EFD1146FFF7EDFF04F074
:100270008DF900F08CFD03B4FFF7F2FF03BC00F032
:10028000CFFD00000948804709480047FEE7FEE728
:10029000FEE7FEE7FEE7FEE7FEE7FEE7FEE7FEE736
:1002A00004480549054A064B70470000C13F000855
:1002B000C5010008F0030020F0090020F00500202F
:1002C000F005002053EA020C00F069802DE9F04BA4
:1002D0004FF00006002B1FBFB3FA83F503FA05F4B5
:1002E00024FA05F65E4012BF1643B2FA82F502FA0E
:1002F00005F4C5F120051EBF22FA05FC44EA0C04F2
:10030000203556EA044C4FEA144418BF641C4FF0E1
:1003100000084FF00009904271EB030C39D300291B
:1003200019BFB1FA81F701FA07F6B0FA80F700FABF
:1003300007F6C7F120071EBF20FA07FC46EA0C06A5
:100340002037B6FBF4FCA7EB0507103F07F01F0BA7
:10035000CBF120060CFA0BFB2CFA06F644BFB34691
:100360000026202FA4BF5E464FF0000B5BEA060C70
:1003700008BF4FF0010B19EB0B09ABFB027C48EBFC
:100380000608C01B06FB02CC0BFB03CC71EB0C0177
:10039000C1E70B46024641464846BDE8F08B13B51F
:1003A0004FF000004FF00001AFF30080BDE81C40AB
:1003B000704700000FB41CB5074B06AA7B44694682
:1003C0000090059800F09DFB0020694600F0ACFB12
:1003D0001CBC5DF814FB0000690700000FB41CB5DD
:1003E0000C0007AA009001D02044401E074B7B441C
:1003F00069460190069800F084FB002C03D0694602
:10040000002000F091FB1CBC5DF814FB41070000CC
:100410002DE9F0410646002410687529314616A5DD
:1004200010D0AFF30080002802DA404213A507E0A5
:1004300031688A0701D512A502E0490704D511A544
:10044000012401E0AFF3008000210A2206F1240715
:1004500009E0B0FBF2FCB0FBF2F302FB1C00303011
:1004600078541846491C0028F3D123462A463046C2
:10047000BDE8F04100F0D8B8000000002D000000F9
:100480002B000000200000002DE9F0474FF0000A8B
:1004900089460446C0F820A02046E1688847002825
:1004A00076D0252806D0D4E901219047206A401C47
:1004B0002062F1E7E168204600258847C4F81CA0C7
:1004C00006460027C4F818A02A2E09D0304604F0AA
:1004D00056F838B304EB8708303EC8F8186019E0C6
:1004E00059F8041B204604EB87029161E1688847B4
:1004F000012F064618D1E069002820DA25F02005F2
:100500001DE0D8F8180000EB800006EB4000303802
:10051000C8F818002046E1688847064604F02FF81E
:100520000028EED1012F0AD02E2E08D12046E168F6
:1005300088477F1C0646022F45F02005C4DBA069D2
:10054000002803DA404245F00105A061E80701D028
:1005500025F01005B6B1A6F14100192802D82036C1
:1005600045F400654A463146204625604D46FFF772
:1005700063FE58B1012806D0ED1D25F0070000F1FB
:10058000080989E704E005F1040985E730468AE7B0
:10059000206ABDE8F08710B5431C02E010F8011B8B
:1005A00071B18107FAD14FF0013202C88C1A8C4325
:1005B00014EAC211F9D0C01A0A0603D0C01E10BD39
:1005C000C01A10BD0A0401D0801E10BD0902FCD063
:1005D000401E10BD4FF0000200B5134694469646EB
:1005E000203922BFA0E80C50A0E80C50B1F1200146
:1005F000BFF4F7AF090728BFA0E80C5048BF0CC0F4
:100600005DF804EB890028BF40F8042B08BF704751
:1006100048BF20F8022B11F0804F18BF00F8012BC3
:1006200070477047704770472DE9F0470D4699466F
:100630009246044600F124080168880604D5E06962
:1006400021F01001216000E00120A84201DD471BDC
:1006500000E00027A1697A1902EB0900081AA061DD
:100660002078C00602D42046AFF30080002608E0C0
:10067000D4E901211AF806009047206A401C761C34
:1006800020624E45F4DB2078C0060AD52046AFF341
:10069000008006E0D4E9012130209047206A401C08
:1006A0002062381EA7F10107F4DC07E0D4E901213C
:1006B00018F805009047206A401C2062281EA5F10A
:1006C0000105F3DC2046AFF300802078000602D558
:1006D0000220BDE8F0870120FBE770472DE9FF4FBE
:1006E0000C461E464FF0FF378BB0D2E90001DDF813
:1006F00060800A908A46C1F30A5505B93D4600213B
:1007000008464FF00000BAF1000F00F4400005DA8F
:1007100000EB80004FF4400101EA50004FEA90598D
:10072000B9F1010F00DDB9460A9850EA4A000ED02F
:1007300044F61050A5F2FF3545432F14B8F1000FD1
:100740001ED07542291E1EDDC9F100021CE0B8F161
:10075000010F4FF0000001D0302103E0F24305E02B
:100760002154401CB042FBDB3046002200212154C2
:100770000B99C1F80880C1E900200FB0BDE8F08FE7
:10078000BD1B6D1CDEE74A4600DA694206A800F090
:1007900063FA06AB93E8070003AB83E80700504613
:1007A0000A9900F044FB8DE80700A0F500501F38BF
:1007B00000900398002D0ADD42F21F014A460844CA
:1007C000002303A90390684600F0ADFD09E0A0F501
:1007D00000504A461F38002303A90390684600F0E2
:1007E000B7FD8DE807000004000C03D04FF0FF3088
:1007F000410800E01046B8F1000F03D0002200923B
:1008000015461EE0751E05D400F0A0F93032625581
:100810006D1EF9D5B3460122084302D000227F1C89
:1008200004E02078302801D100227F1E002A099799
:1008300084D01DE0112D07DA00F088F930326255BE
:100840006D1C50EA0102F5D1084302D00098C8B1EE
:100850000EE00021681E05E0235C625C63542254B4
:10086000401E491C8142F7DBAB46A81B401E099085
:10087000002004F80B000B98099AC0F80880C0E922
:10088000002B7AE711264FF0000857E72DE9F04FCB
:1008900088460446D21D22F0070191B0D1E900013B
:1008A000CDE90A0103F043FE02460B98C00F01D0C8
:1008B0002D2007E02068810701D52B2002E02021B0
:1008C00001EAC000032A099001D0072A05DB03468C
:1008D0004146204600F080F90BE12078800601D5E2
:1008E000E06900E00620B8F1650F814606D0B8F156
:1008F000660F18D0B8F1670F70D131E00020B9F160
:10090000110F009001DB112301E009F101030AAA94
:1009100001A90CA8FFF7E2FEDDE90C70002609F141
:100920000105834647E001204B4600904FF0004709
:100930000AAA01A90CA8FFF7D1FEDDE90DB00C99B8
:100940005D46002610B909F101000D18B9EB05004C
:1009500003D4C0F1FF3609F10105A5EB09002BE036
:10096000B9F1010F01DA4FF001090020B9F1110FBF
:100970000090484601DD112300E003460AAA01A9C0
:100980000CA8FFF7ABFEDDE90C704D460026834650
:10099000207800070AD4AB4500DA5D4601A8012D96
:1009A00004DD411911F8011C302907D04F4502DA46
:1009B00017F1040F04DA012082460FE06D1EEEE706
:1009C000002F02DCED1B3E4403E0781CA84200DD52
:1009D0007D1CB81B00F1010A4FF00047207800078A
:1009E00003D4AA4501DB4FF0FF3A0021B7F1004FD5
:1009F0000DF143088DF8431024D002202B23002F43
:100A000001DA7F422D230A21021EA0F1010000DC41
:100A10005FB197FBF1FC97FBF1F201FB1C7C1746E1
:100A20000CF1300C08F801CDEEE7A8F101000370DD
:100A30002188090501D5452100E06521A0F10108C3
:100A400000F8011C09980FA9A1EB0807FF1D00B1D0
:100A50000120411901EBEA70A1693844081A401ECF
:100A6000A0612078C00602D42046AFF30080099828
:100A700028B1D4E901219047206A401C20622078E7
:100A8000C00622D52046AFF300801EE0002E04DB16
:100A9000B34502DD01A8805D00E03020D4E90121EA
:100AA0009047206A401C2062761CAAF101005FEA90
:100AB000000A0AD100F046F8C0680168405CD4E939
:100AC00001219047206A401C2062281EA5F10105E3
:100AD000DCDC07E0D4E9012118F8010B9047206A1B
:100AE000401C2062381EA7F10107F3DC2046AFF35B
:100AF0000080032011B041E601694A1C02610878B8
:100B0000704700B58FB0CDE901310021059105494D
:100B10007944CDE9031011466846FFF7B5FC0FB0E4
:100B200000BD0000E5FFFFFF0A6802F8010B0A6044
:100B30007047D1E900239A4202D2531C0B60107017
:100B40007047000000487047AC03002030B5B0F19A
:100B50000A024FEA900E71F100034EEA817EB0EB7B
:100B60000E0061EB91014FEA101E4EEA017E10EB80
:100B70000E0041EB11114FEA102E4EEA016E10EB00
:100B80000E0041EB11214FEA104E4EEA014E10EBE0
:100B90000E0041EB1141401841F100014FEAD00035
:100BA00040EA41704FEAD10110EB80054FEA810421
:100BB00044EA907444EB01046D1944EB0404521BA5
:100BC000A3414FF0000348BF0A3200D530BD401C9E
:100BD00041F1000130BD00002DE9F0411F460446FF
:100BE00003260168072A01F4006004DB08B116A59A
:100BF00005E016A503E008B115A500E015A521F054
:100C000010002060A069C01EA0610FB1401EA0614D
:100C10002046AFF300804FB1D4E901213846904718
:100C2000206A401C2062C01C206206E0206AFAE7AD
:100C3000D4E9012115F8010B9047761EF8D2204621
:100C4000AFF30080BDE8F0814E414E006E616E0052
:100C5000494E4600696E66002DE9F047814616460A
:100C60008AB0354878440DC88DE80D003248784484
:100C7000801C03AC0DC884E80D0041F69B3008448D
:100C8000372190FBF1F290FBF1F5A5F1800501FB16
:100C900012041B3C02D56442012000E00020DFF872
:100CA00098A080460027FA44AAF1BE0A0EE0E007A9
:100CB0000AD03246684607EB470101230AEB81015F
:100CC00000F046FB8DE8070064107F1C002CEED17D
:100CD000194F7F44AE3F19E0E80715D007EB041029
:100CE0000DF1180A90E80E008AE80E00C068F04284
:100CF00001D1981908903246012306A903A800F0F3
:100D000027FB03AB83E807006D10641C002DE3D1C3
:100D10004FF0010332466946B8F1000F03A802D034
:100D200000F001FB01E000F013FBC9E90001C9F884
:100D300008200AB0BDE8F087EC3B0000004870478F
:100D40008C0300207546FFF7F9FFAE4605006946A3
:100D5000534620F00700854618B020B5FFF7A0FAEB
:100D6000BDE820404FF000064FF000074FF00008AC
:100D70004FF0000B21F00701AC46ACE8C009ACE82D
:100D8000C009ACE8C009ACE8C0098D46704710B591
:100D90000446AFF300802046BDE81040FFF76BBA71
:100DA0004FF0013C50F8042B51F8043B9A4221D1FA
:100DB000A2EB0C03934313EACC1317D150F8042B86
:100DC00051F8043B9A4215D1A2EB0C03934313EA6A
:100DD000CC130BD150F8042B51F8043B9A4209D1A3
:100DE000A2EB0C03934313EACC13DBD04FF00000CB
:100DF000704700BFD01A01BAB1FA81F101F01801B1
:100E000022FA01F0CB40C1F12001DBB2C0B2C01A1E
:100E10002CFA01F3D11A914311EAC311E6D17047BC
:100E200001491820ABBEFEE72600020070475FEACA
:100E3000400C08BF91F0000F4FEA8C234FEAC1220B
:100E400043EA51514FEA1C5018BF00F5F0404FEAF9
:100E5000300018BF41F000415FEA6C5C00F029806F
:100E6000BCF1FF3F08BF40F080407047130C06BF45
:100E700012044FF0100C4FF0000C130E04BF1202BE
:100E80000CF1080C130F04BF12010CF1040C930FAA
:100E900004BF92000CF1020CD30F04BF52000CF1FE
:100EA000010C11464FF00002A0F11F00A0EB0C0056
:100EB000704711F0004F08BF704731F000413FF418
:100EC000D5AF0B0C06BF09044FF0100C4FF0000C0F
:100ED0000B0E04BF09020CF1080C0B0F04BF090133
:100EE0000CF1040C8B0F04BF89000CF1020CCB0F2A
:100EF00004BF49000CF1010CCCF12003A0EB0C0065
:100F000022FA03F302FA0CF241EA030100F10100B4
:100F1000704720F07F4C80EA030023F07F47ACEB62
:100F2000070303F57C5300F0004003F1FF032DE9B4
:100F300080494FEA154B09B44FEA144325EA0B4E9A
:100F400024EA03480FF2042606EB132749083E78EB
:100F50005FEA320203FB0667C7F5000707FB06F6E8
:100F60004FEA54374FEAD64606F1020607FB066CF5
:100F7000CCF1005C4FEA1C472CEA074C07FB06F457
:100F80000CFB06F504EB15464FEA961634BF00201D
:100F90004FF000404FEAD13706FB07FC4FEA1C4CEC
:100FA0000CFB0BF7D21B03FB0CF761EB07010CFBEF
:100FB0000EF7B0EB074072EB17420CFB08F734BF9B
:100FC000A2EB0742B2EB074261EB17414FEA0C4438
:100FD0004FEA910706FB07FC4FEA1C4C0CFB0BF792
:100FE000B0EBC74072EB573203FB0CF734BFA2EBF8
:100FF000C742B2EBC74261EB57310CFB0EF7B0EBC7
:10100000C70072EB57720CFB08F734BFA2EBC702A4
:10101000B2EBC70261EB5771039F4FEA816141EA6E
:10102000921104EBCC044FEAD1374FEA826206FBFF
:1010300007FC42EA90124FEA80604FEA1C4C0CFB1E
:101040000BF7D21B03FB0CF761EB07010CFB0EF750
:10105000B0EB074072EB17420CFB08F734BFA2EB72
:101060000742B2EB074261EB17414FEA8C554FEA5A
:10107000910704EB9C2406FB07FC4FEA1C4C0CFB7D
:101080000BF7B0EBC74072EB573203FB0CF734BFE2
:10109000A2EBC742B2EBC74261EB57310CFB0EF734
:1010A000B0EBC70072EB57720CFB08F734BFA2EB32
:1010B000C702B2EBC70261EB577115EB4C254FEA43
:1010C000816141EA92114FEA82624FEAD13742EAE6
:1010D000901206FB07FC44F100044FEA80604FEADF
:1010E0001C4C0CFB0BF7D21B03FB0CF761EB07014D
:1010F0000CFB0EF7B0EB074072EB17420CFB08F746
:1011000034BFA2EB0742B2EB074261EB174115EB8C
:101110001C154FEA813141EA92414FEA823242EA9C
:1011200090424FEA80304FEA0C7644F1000448EADE
:1011300003434EEA0B484FF0000EB2EB080C71EB84
:10114000030724BF624639464EEB0E0E4FF0000BEC
:101150000018524149414BEB0B0BB2EB080C71EB01
:1011600003077BF1000B24BF624639464EEB0E0E9F
:101170004FF0000B0018524149414BEB0B0BB2EB07
:10118000080C71EB03077BF1000B24BF6246394664
:101190004EEB0E0E51EA020718BF46F0010616EBA1
:1011A0000E7655F1000254F1000103D5BDE8890126
:1011B000BDE80088BDE88901BDE80048B619524184
:1011C00041EB0101A3F10103704780807F7E7D7CAC
:1011D0007B7A7978777676757473727171706F6EC9
:1011E0006E6D6C6C6B6A6A69686867666665646474
:1011F000636362616160605F5F5E5E5D5D5C5C5BFE
:101200005B5A5A595958585757565655555554546C
:10121000535352525251515050504F4F4F4E4E4DCA
:101220004D4D4C4C4C4B4B4B4A4A4A494949484816
:101230004847474747464646454545444444444356
:1012400043434342424242414141002B9C4630D4F9
:1012500077002BD01CB54FEA370703B44FF01000CE
:101260004FF01001BAF1000F06D0BCF1000FDCBF47
:1012700040F0080040F008014FF000000FBCBDE84E
:1012800010400BF1010BBBF1010F08BF5FEA17071C
:1012900022BF12F1010211F101014FF0004143F1AF
:1012A000000300F0004043EA00007047F9D35708FC
:1012B000D0E746EA064613F1400F4FEA16461FDD17
:1012C00013F1200FDFBF16430A46002120335B4293
:1012D000BED0C3F1200746EA064602FA07F74FEAF6
:1012E000164646EA0706C3F1200722FA03F201FA7E
:1012F00007F721FA03F14FF0000342EA0702A7E7DC
:1013000046EA020646EA06464FEA164646EA01065D
:10131000BCBF46EA0646360C4FF000034FF0000211
:101320004FF0000194E72DE9804C9A46934670B443
:1013300091E8380007C831EA400C48BF34EA430C52
:1013400003D5FFF7E6FDFFF780FFF0BCBDE8008C9A
:101350002DE9804C9A46934670B491E8380007C84E
:1013600010F0804F08BF13F0804F03D100F005F854
:10137000FFF76BFFF0BCBDE8008C20F07F4780EAF0
:10138000030023F07F4C07EB0C03A3F57C5300F024
:101390000040A3F1FE0392F0000F00F0B38095F03F
:1013A000000F00F077802DE901494FEA11404FEA24
:1013B000144621EA004800FB06FC24EA064708FB25
:1013C00006F607FB08F800FB07F718EB06484CEB9E
:1013D000164C4FEA124B18EB07484FEA15464CEBF8
:1013E000174022EA0B4E0BFB06FC25EA06470EFBD4
:1013F00006F607FB0EFE0BFB07F71EEB064E4CEB4B
:10140000164C4FF000061EEB074E4CEB174B18EB3B
:101410000B0840F1000018EB0E0B58EB000840F1F0
:1014200000008F1A4FF000013CBFC943661B14BF78
:10143000B5EB040C00213CBFC943F61B4FEA17442F
:101440004EEA8E0E27EA04454FEA1C4704FB07626A
:101450002CEA074C05FB07F70CFB05F604FB0CFC1C
:1014600016EB074642EB174216EB0C4642EB1C42CA
:101470001BEB060658EB0202414146EA9E0601D5E7
:10148000BDE80189B619524141EB0101A3F1010305
:10149000BDE801894FEA14454FEA114724EA0546A1
:1014A00021EA074C05FB07F406FB07F70CFB06F1E6
:1014B00005FB0CFC11EB074144EB17444FEA1247C4
:1014C00011EB0C4144EB1C4422EA074C05FB07F2EC
:1014D00006FB07F70CFB06F605FB0CFC16EB0746B4
:1014E00042EB174216EB0C4642EB1C456A1854F1CE
:1014F000000148BF7047B619524141EB0101A3F109
:101500000103704795F0000F37D04FEA11424FEAC0
:10151000144721EA024624EA074C02FB07F106FBC6
:1015200007F70CFB06F402FB0CFC14EB074441EB41
:1015300017414FEA154714EB0C4441EB1C4125EAD7
:10154000074C02FB07F506FB07F70CFB06F602FB50
:101550000CFC16EB074645EB174516EB0C4645EB26
:101560001C42121951F1000148BF7047B61952418F
:1015700041EB0101A3F1010370474FEA14454FEA23
:10158000114724EA054621EA074C05FB07F106FB53
:1015900007F70CFB06F24FF0000605FB0CFC12EB04
:1015A000074241EB174112EB0C4251EB1C4148BF83
:1015B0007047921841EB0101A3F10103704700004D
:1015C000464910B54A6822F440324A604A68436886
:1015D0001A434A6001684A6822F480724A600168CE
:1015E0004A68036942EA03224A6001684A6822F0B5
:1015F00040724A6001684A6883681A434A60016819
:101600008A6822F400628A6001688A68C3681A43A3
:101610008A60816A6FF07062D14201688A6822F044
:1016200070628A6001688A680CD0836A1A438A6093
:1016300001688A6822F040528A6001688A68C36A39
:101640001A4301E022F040528A6001688A6822F061
:1016500002028A6001688A68037E42EA43028A6065
:1016600090F82010002901684A680FD042F4006207
:101670004A6001684A6822F460424A6001684A6828
:10168000174C436A04EB43331A4301E022F400622F
:101690004A600168CA6A22F47002CA620168CA6AB2
:1016A000838B104C04EB03531A43CA6201688A68A7
:1016B00022F400728A6001688A6890F8303042EA49
:1016C00043228A6001688A6822F480628A60016825
:1016D0008A68406942EA8020886010BD002301408A
:1016E00000E0FFFF0000F0FFFEE70000014800F00F
:1016F000B3B90000A4020020014800F0ADB9000019
:101700004402002001681823CAB2103AB2FBF3F277
:10171000054B6FF30901032A9B5CC36500D9091DC2
:101720008165084670470000B847000810B50146BB
:1017300000208B698A6A4FF0C07453B1B3F5005F23
:1017400015D072B1012A0CD0022A0AD0032A09D17D
:1017500004E01AB1012A06D0022A03D1C96AC901DC
:1017600000D5012010BDC96AA142FAD010BD002ADF
:10177000F7D0012AF2D0022AF3D0032AF3D010BD09
:10178000704772B6FEE7000078B50024009490F828
:101790003C20012A19D0012280F83C200A68072346
:1017A0000568092A13D9EE680A3A02EB420293400F
:1017B0009E43EE600B788A680A3B03EB43039A4032
:1017C0000368DD682A43DA6010E0022078BD2E69E4
:1017D00002EB420293409E432E610B788A6803EB32
:1017E00043039A4003681D692A431A614A681F230C
:1017F000072A13D205686E6B521E02EB82029340D9
:101800009E436E630A8893B20A79521E02EB8202EB
:1018100093400268556B2B43536327E005680D2AFC
:1018200012D22E6BD21F02EB820293409E432E6394
:101830000B790A88DB1F92B203EB83039A4003689B
:101840001D6B2A431A6311E0EE6A0D3A02EB820225
:1018500093409E43EE620B790A880D3B92B203EBF4
:1018600083039A400368DD6A2A43DA621B4B0568EA
:10187000194A9D420AD10D68122D07D1556825F4E9
:1018800000055560556845F48005556005689D4222
:101890001DD1134D0B68AB4201D0112B17D15368EA
:1018A00023F480035360536843F4000353600968D2
:1018B000A9420CD10B490C4A0968B1FBF2F101EBCA
:1018C0008101490000E0491E00910029FBD180F808
:1018D0003C40002078BD0000002301400020014072
:1018E000120000101C00002040420F0070B50400E0
:1018F0004FF0000503D0206C002610B107E0012056
:1019000070BD204600F01CF8666484F83C60206CD2
:10191000C00610D4206C20F4885040F002002064EF
:101920002046FFF74DFE6664206C20F0020040F078
:101930000100206400E0012584F83C60284670BD69
:1019400010B586B0044614216846FEF743FE1149DF
:10195000206888421CD110480021026842F480723D
:101960000260006800F4807005900B48143802682B
:1019700042F001020260006800F0010005900420BE
:1019800000900320CDE901016946044800F0B0F958
:1019900006B010BD00200140443802400000024063
:1019A0002DE9F0410446876D00F096FA064694F85A
:1019B00035000025022806D08020606584F8345068
:1019C0000120BDE8F0812068016821F01601016066
:1019D0002068416921F080014161206C08B9A06C48
:1019E00020B12068016821F00801016020680168C9
:1019F00021F0010101600CE000F06EFA801B052867
:101A000007D920206065032084F8350084F834501D
:101A1000D7E720680068C007EED194F85C103F203B
:101A20008840B860012084F8350084F834500020E4
:101A3000C7E790F83510022903D0802141650120C5
:101A40007047052180F835100068016821F0010118
:101A500001600020704700002DE9F84304464FF074
:101A60000009CDF8009063484FF41651A56D006849
:101A7000B0FBF1F72E6894F85C10082000FA01F131
:101A800031420FD021680A6852070BD50A6822F04C
:101A900004020A6094F85C108840A860606D40F011
:101AA0000100606594F85C104FF0010808FA01F03D
:101AB000304208D021684969090604D5A860606DE4
:101AC00040F00200606594F85C10042088403042C9
:101AD00008D021680968890704D5A860606D40F0C6
:101AE0000400606594F85C1010208840304218D0E3
:101AF00021680968090714D5A860206801684903AE
:101B000004D50068000308D5A16C07E00168C90589
:101B100003D4016821F008010160216C09B120465D
:101B2000884794F85C1020208840304231D02168EA
:101B30000968C9062DD5A86094F8350005282068E5
:101B4000016806D0490347D5006800031DD4616CC5
:101B50001CE021F0160101602068416921F080013C
:101B60004161206C08B9A06C20B12068016821F0A7
:101B70000801016094F85C103F208840A86084F858
:101B8000358084F83490216D1FE0E16B09B1204667
:101B90008847606D00282BD0606DC00714D00520E9
:101BA00084F835002068016821F001010160009887
:101BB000401C0090B84203D820680068C007F6D1E6
:101BC00084F8358084F83490E16C002910D001B09D
:101BD0002046BDE8F04308470168C905D5D401682F
:101BE00021F01001016084F8358084F83490CCE74E
:101BF000BDE8F8831C0000202DE9F041044600F008
:101C00006BF906465CB1022084F83500002584F8A3
:101C100034502068016821F0010101600DE00120CD
:101C2000BDE8F08100F058F9801B052805D9202077
:101C30006065032084F83500F2E720680068C0077B
:101C4000F0D12268116820480140D4E9010318430B
:101C5000D4E903363343184363691843A36918432F
:101C6000E3691843236A18430843616A042903D1CE
:101C7000D4E90B1319430843106020684069666A71
:101C800020F0070130460E43012704280CD1A06A3A
:101C90000643E06A40B12046FFF748FD20B14020EE
:101CA000606584F83570BAE7206846612046FFF722
:101CB00029FD94F85C203F2191408160656584F89E
:101CC00035700020ACE700003F8010F070B504468E
:101CD00000F002F90546601C02D004480078044474
:101CE00000F0FAF8401BA042FAD370BD10000020AB
:101CF0002DE9F84FDFF8ACA10022012403254FF0B5
:101D00000F090AF1040BAAF1040E00BF0B6804FAD4
:101D100002F63340B3426ED10F7907F00307012F6B
:101D200001D0022F16D187684FEA420805FA08FC55
:101D300027EA0C07D1F80CC00CFA08FC4CEA070C97
:101D4000C0F808C04768B7430E79C6F3001696403E
:101D50003E4346600E79F643B6070AD0C6684FEA9E
:101D6000420C05FA0CF7BE438F6807FA0CF73743AD
:101D7000C7600E7906F00306022E10D1D60800EBDC
:101D80008608D8F8206057074FEAD76C09FA0CF795
:101D9000BE430F6907FA0CF73743C8F8207006688E
:101DA0004FEA420C05FA0CF7BE430F7907F0030720
:101DB00007FA0CF7374307604E6816F4403F6BD0C4
:101DC000394E376847F480473760366822F003079A
:101DD00006F480460096354E07EB060CDCF80868E2
:101DE00097074FEA177809FA08F7BE43304FB84211
:101DF00002D100271FE04FE02E4FB84201D101274A
:101E000019E02D4FB84201D1022714E02B4FB84200
:101E100001D103270FE02A4FB84201D104270AE07D
:101E2000284FB84201D1052705E0274FB84201D11C
:101E3000062700E0072707FA08F73743CCF80878A9
:101E4000DAF800605746D1F804C09E435FEACC2C14
:101E500000D51E433E60DBF800605F46D1F804C049
:101E60009E435FEA8C2C00D51E433E60DEF8006086
:101E70007746D1F804C09E435FEA8C3C00D51E43F0
:101E80003E60084F083F3E68D1F804C09E435FEAB9
:101E9000CC3C00D51E433E60521C102AFFF436AFE6
:101EA000BDE8F88F083C0140443802400030014052
:101EB000000002400004024000080240000C024002
:101EC0000010024000140240001802400AB1816173
:101ED00070470904FBE70000014880687047000074
:101EE0001000002070B5040025D094F83D000025B6
:101EF00020B984F83C50204600F0BAF9242084F838
:101F00003D002068016821F001010160206801683E
:101F100041F4004101602068016821F40041016042
:101F200000F048FB4D4A6168914201D84C4900E0FD
:101F30004C49884201D2012070BD4B492368B0FB57
:101F4000F1F15E6826F03F060E435E6063689342DF
:101F500006D94FF4967359434FF47A73B1FBF3F1FA
:101F60002368491C1E6A26F03F06314319626168E6
:101F7000914210D84900401EB0FBF1F2521CC2F34E
:101F80000B02042A01D2042022E0B0FBF1F0401C35
:101F9000C0F30B001CE0A268F2B301EBC10303EB3A
:101FA0000116431EB3FBF6F35B1C43F480431B0591
:101FB00049D092B301EBC10202EB0111401EB0FB0C
:101FC000F1F0401CC0F30B0040F4804040F40040AE
:101FD0002168CA694CF6FF739A431043C861D4E97B
:101FE000071001432068026822F0C002114301601B
:101FF000D4E9030101432068826848F2FF339A4321
:1020000011438160D4E9050108432168CA6822F0C0
:10201000FF021043C86001E00EE016E0206801688E
:1020200041F0010101602564202084F83D00256312
:1020300084F83E50002070BD01EB4106431EB3FB07
:10204000F6F35B1CB3E70120C2E701EB4101401E40
:10205000B0FBF1F0401CC0F30B00B7E7A086010015
:1020600080841E0000093D0040420F002DE9FF4F13
:1020700083B09A46DDE9118793460446DDF8409027
:10208000FFF72AFF054694F83D00202870D1192358
:10209000012274492046009501F050FB0028F5D13B
:1020A00094F83C00012863D0012084F83C002068AB
:1020B0000168C90703D1016841F00101016020688E
:1020C000016821F400610160222084F83D00402075
:1020D00084F83E0000262664C4F82490A4F82A80E0
:1020E000608D20856048E062CDE9007553465A4610
:1020F0002046049901F0A4FA002879D1208DD0B1AE
:10210000012821D00228206824D0416980690090EC
:10211000208D032866D801282BD0544902283B463D
:102120004FF00002009557D08846204601F006FB8C
:1021300000285DD13AE02068416981690091016819
:1021400041F4007101607DE02068016821F4806144
:102150000160F0E7016821F4806101602068016896
:1021600041F400610160206841698069009069E084
:1021700075E02A463946204601F086FB88BB54E0CC
:102180002068016841F40071016020680069616A9B
:102190000870606A401C6062218D491E2185618D36
:1021A000491E618521680969017042E02068016863
:1021B00021F48061016020680069616A0870606ACA
:1021C000401C6062208D401E2085608D401E608511
:1021D0003B46002241460095204601F0AFFA00B987
:1021E000CEE705E02A463946204601F04DFB18B1FE
:1021F000012007B0BDE8F08F20680069616A0870AF
:10220000606A401C6062208D401E81B22185608D15
:10221000401E608520684269D243520712D40329C8
:1022200003D1016821F48061016020680069616A5E
:102230000870606A401C6062208D401E2085608DA1
:10224000401E6085208D00287FF462AF202084F836
:102250003D0084F83E6084F83C600020C9E702201D
:10226000C7E70000020010000000FFFF04000100AB
:1022700010B586B0044614216846FEF7ABF9144940
:102280002068884221D11348016841F002010160B1
:102290000068694600F0020005904FF4407000901D
:1022A000122001900120029003200390042004904A
:1022B0000948FFF71DFD07481030016841F400117F
:1022C0000160006800F40010059006B010BD000029
:1022D0000054004030380240000402400248816847
:1022E0000278114481607047100000200B4810B53F
:1022F000016841F400710160016841F4806101608E
:10230000016841F480710160032000F06FF80F2034
:1023100000F006F800F024F8002010BD003C024058
:1023200070B50D4D04464FF47A712878B1FBF0F08A
:102330000A490968B1FBF0F000F074FB48B9102CB1
:1023400007D200222146501E00F030F800206C60B9
:1023500070BD012070BD0000100000201C00002096
:102360000A4808B5016841F480410160006800F442
:10237000804000900548001F016841F080510160D5
:10238000006800F08050009008BD00004438024012
:10239000002809DB00F01F02012191404009800064
:1023A00000F1E020C0F8001170470000F0B40E4BBF
:1023B0001B680C46C3F30223C3F10705042D00D9A3
:1023C0000425191D072901D2002300E0DB1E012688
:1023D00006FA05F1491E214099409E40761E16409E
:1023E0003143F0BC02F0BBB80CED00E0064900F050
:1023F000070208684FF6FF03184040EA0220034A2C
:1024000010430860704700000CED00E00000FA0582
:102410002DE9F8431748016841F0805101600068D8
:10242000154F00F08050012600903E64FFF754FDE8
:1024300005464FF47A78114C05E000BFFFF74CFDDC
:10244000401B40450DD86068C003F7D57E64FFF798
:1024500043FD0546464607E0FFF73EFD401BB04200
:1024600002D90320BDE8F88360688003F4D500201A
:10247000F8E700004038024000000E4200700040C3
:102480002DE9F0470E46050065D0DFF81481D8F835
:102490000000F7B200F00F00B04207D288F80070D9
:1024A000D8F8000000F00F00B04254D128683D4C2D
:1024B000810712D5400703D5206840F4E050206022
:1024C0002878000703D5206840F460402060206829
:1024D000A96820F0F000084320602878C0072DD0BC
:1024E000304968680839012812D0022813D003281F
:1024F00011D00968890700292DDA216821F003012C
:1025000001432160FFF7E8FC814641F2883A0EE082
:1025100009688903EFE709688901ECE7FFF7DCFC4C
:10252000A0EB0901514502D90320BDE8F0872068DE
:10253000696800F00C00B0EB810FEFD1D8F8001003
:10254000404601F00F01B14207D90770006800F062
:102550000F00B04201D00120E7E72878400705D5F9
:102560002068E96820F4E0500843206028780007DC
:1025700006D52068296920F4604040EAC100206047
:1025800000F038F82168084AC1F30311515CC840D3
:102590000649086006480068FFF7C2FE0020C4E74D
:1025A000003C024008380240C04700081C000020E0
:1025B000140000200448054900680968044AC1F372
:1025C0008221515CC84070471C000020083802403E
:1025D000D04700080448054900680968044AC1F367
:1025E0004231515CC84070471C000020083802404E
:1025F000D0470008224810B5006810F00C022148AE
:1026000015D02149042A11D01D4C241F082A0FD0AF
:102610000C2A0CD12268236802F03F025B0221D50C
:102620002068C0F38810A0FB010120E0084610BD1F
:102630002268236802F03F025B0205D52068C0F3E0
:102640008810A0FB010104E02168C1F38811A1FBFF
:1026500000010023FDF736FE2168C1F30141491C4A
:1026600049000AE02168C1F38811A1FB00010023A1
:10267000FDF728FE2168C1F30271B0FBF1F010BD37
:10268000083802400024F40040787D012DE9F84F1D
:1026900004007DD0DFF878B32078ABF10407C007E1
:1026A000A7F1040550D0DBF800105846C1F38101B2
:1026B00001290FD00168C1F38101022902D13968D3
:1026C000490207D40068C0F38100032809D13868A3
:1026D000400206D52868800336D560680028D8D027
:1026E00032E06068B0F5803F10D0B0F5A02F2868C8
:1026F00010D020F480302860286820F480202860E2
:102700006068A0B1FFF7E8FB06460CE0286840F4DB
:102710008030F4E740F480202860F7E7FFF7DCFB27
:10272000801B642876D828688003F7D50CE0FFF773
:10273000D3FB064605E000BFFFF7CEFB801B6428F5
:10274000F0D828688003F7D42078DFF8C892800793
:102750004FF0000A44D5DBF80010584611F00C0F7A
:102760000FD00168C1F38101022902D13968490201
:1027700007D50068C0F3810003280AD138684002F9
:1027800007D42868800715D5E068012800D111E03A
:102790003AE1E068B0B10120C9F80000FFF79CFB06
:1027A000064604E0FFF798FB801B0228BAD8286889
:1027B0008007F7D52868216920F0F80040EAC100B9
:1027C00028600DE0C9F800A0FFF786FB064604E08C
:1027D000FFF782FB801B02281CD828688007F7D4EB
:1027E0002078000727D5DFF828828B48616908F137
:1027F0006C0881B101210160FFF76EFB064604E021
:10280000FFF76AFB801B022804D8D8F80000800775
:10281000F6D510E089E0C0F800A0FFF75DFB0646A2
:1028200005E000BFFFF758FB801B02287DD8D8F8D1
:1028300000008007F6D42078400769D574484FF02F
:10284000000838300068C0000BD471483830016887
:1028500041F08051016000684FF0010800F08050A5
:1028600000906E4E3068C00511D4306840F480701E
:102870003060FFF731FB009006E000BFFFF72CFB54
:102880000099401A022850D83068C005F6D5604E2D
:10289000A068683601280FD00528306810D020F0D5
:1028A00001003060306820F004003060A068B8B1EA
:1028B000FFF712FB00900FE0306840F00100F4E7F2
:1028C00040F004003060F7E7FFF706FB0099411A7B
:1028D00041F28830814264D830688007F4D50EE038
:1028E000FFF7FAFA009007E0FFF7F6FA0099411AAD
:1028F00041F28830814254D830688007F4D4B8F16E
:10290000000F05D042483830016821F08051016045
:10291000A069A8B3DBF80010C1F38101022947D0F8
:102920000228C9F860A005D000E03AE0FFF7D4FA29
:10293000044639E0FFF7D0FA064604E0FFF7CCFA88
:10294000801B02282DD828688001F7D4F4E90701FC
:102950000843E168324A490802EB0141A26841EAB2
:1029600082110843217C40EA0160217D40EA017028
:1029700038600120C9F86000FFF7AEFA044606E0AF
:1029800044E000BFFFF7A8FA001B022809D8286816
:102990008001F7D53AE000BFFFF79EFA001B02283E
:1029A00002D90320BDE8F88F28688001F4D42DE017
:1029B0000128F7D03868E26900F48001914223D100
:1029C000226A00F03F0191421ED147F6C071626A4F
:1029D0000140B1EB821F17D1A26A4FF0FF3300F420
:1029E000403103EB5202B1EB024F0DD194F82C2091
:1029F00000F07061B1EB026F06D194F8301000F076
:102A0000E040B0EB017F01D00120CBE70020C9E717
:102A10000838024000004742800E474200700040E4
:102A20000000FFFF10B5401EB0F1807F01D30120F0
:102A300010BD4FF0E02460610F21601701F08FFDA1
:102A40000020A06107202061002010BD70B590F823
:102A50003C20012A32D0012480F83C40022280F838
:102A60003D2003685A689D6822F070060A68324368
:102A70005A60134B02689A4214D0B2F1804F11D0C1
:102A8000104B9A420ED0104B9A420BD00F4B9A42E9
:102A900008D00F4B9A4205D00E4B9A4202D00E4BF3
:102AA0009A4204D1496825F080031943916080F867
:102AB0003D40002180F83C10084670BD022070BDEA
:102AC000000001400004004000080040000C0040ED
:102AD0000004014000400140001800402DE9F04191
:102AE0000D46040003D094F83D0018B108E0012021
:102AF000BDE8F081002084F83C00204600F040F85A
:102B0000022084F83D002068816844F20702914366
:102B10008160211D206801F05BFA2268906891694C
:102B2000166A2B68AF69034340F20330814341EAE0
:102B30000721A868EF6908434FF6FC418843E9681C
:102B400040EA0720014328692F6A000140EA073064
:102B5000084369686D6926F0AA0646EA0515294307
:102B600093602268906154F8460B0162012004F8DA
:102B70001F09E0752076E0762077A0750020B7E782
:102B800030B587B0044614216846FDF723FD21487F
:102B9000246800221F4910380223B4F1804F1FD04F
:102BA0001D4DAC421AD10C6844F004040C60096855
:102BB00001F004010591016841F002010160006823
:102BC000694600F002000590C0200090CDE9013276
:102BD0001248CDE9032300BFFFF78AF807B030BDE4
:102BE0000C6844F001040C60096801F001010591D2
:102BF000016841F0010101600068694600F00100D0
:102C0000059003200090CDE901320120CDE9032099
:102C10000348E1E740380240000800400004024059
:102C20000000024030B587B0044614216846FDF725
:102C3000D1FC16492068884226D115480024016835
:102C400041F001010160016801F001010591016895
:102C500041F0020101600068022500F002000590C9
:102C6000C0200090CDE9015469460A48CDE90345EA
:102C7000FFF73EF803200090CDE90154694606486D
:102C8000CDE90345FFF734F807B030BD000400403C
:102C900030380240000002400004024070B5044693
:102CA00090F83C0000260D4601280FD0012084F842
:102CB0003C006AB1042A1DD0082A2FD00C2A3FD02C
:102CC0000126002084F83C00304670BD022070BD13
:102CD000206801F0F3F92068816941F00801816101
:102CE0002068816921F004018161206881692A6975
:102CF000114311E0206801F011FA2068816941F464
:102D0000006181612068816921F4806181612068AE
:102D100081692A6941EA02218161D2E7206801F0D4
:102D200033FA2068C16941F00801C1612068C169B6
:102D300021F00401C1612068C1692A69114311E0D1
:102D4000206801F055FA2068C16941F40061C16151
:102D50002068C16921F48061C1612068C1692A6964
:102D600041EA0221C161ACE710B5040003D094F838
:102D70003D0010B107E0012010BD002084F83C00A8
:102D8000204600F01FF8022084F83D00211D206835
:102D900001F01EF9012084F8460084F83E0084F812
:102DA0003F0084F8400084F8410084F8420084F831
:102DB000430084F8440084F8450084F83D00002076
:102DC00010BD000008B500680649884208D10648D1
:102DD000016841F002010160006800F0020000900B
:102DE00008BD0000000400404038024010B5044611
:102DF000022249B104290ED0082913D094F84100C9
:102E0000012816D0012010BD94F83E000128F9D108
:102E100084F83E200FE094F83F000128F2D184F8B6
:102E20003F2008E094F840000128EBD184F84020CE
:102E300001E084F841200122206801F031F91649AF
:102E40002068164A884201D0904203D1436C43F473
:102E5000004343642068884213D0B0F1804F10D003
:102E60000F4988420DD00F4988420AD00E49884246
:102E700007D0904205D00D49884202D00C498842C3
:102E800004D1816801F00701062903D0016841F0EF
:102E900001010160002010BD00000140000401405C
:102EA0000004004000080040000C004000400140C9
:102EB0000018004070477047F8B50168044608687C
:102EC000CA684B6910F00F0F4FF0000559D003F09E
:102ED000010602F49077374365D0C10705D0D105CC
:102EE00003D5616C41F001016164410705D5D90743
:102EF00003D0616C41F002016164810705D5D907F7
:102F000003D0616C41F004016164010707D502F050
:102F10002001314303D0616C41F008016164616CB0
:102F200000293AD0800604D5900602D5204601F04B
:102F3000B5F920684069616CC0F38010090700D4BE
:102F400060B3204601F083F920684069400621D52E
:102F50002068143050E8001F21F0400140E80012C2
:102F6000002AF5D1E06BA8B172490165E06BFEF76C
:102F700060FD002811D0E06B016D01B0BDE8F040AC
:102F8000084783060FD593060DD52046BDE8F840C7
:102F900001F084B92046FFF78EFFF8BD2046FFF709
:102FA0008AFF6564F8BD266B2023012E7ED1C606FC
:102FB0007CD5D6067AD508684868009048694FF0F5
:102FC000020640064DD5E26B106840684FF48077EA
:102FD0000004000C3AD0A18D814237D9E085D06938
:102FE000B8422DD020680C3050E8001F21F48071C9
:102FF00040E80012002AF5D12068143050E8001F84
:1030000021F0010140E80012002AF5D120681430B7
:1030100050E8001F21F0400140E80012002AF5D1DD
:1030200084F84230256320680C3050E8001F21F0FE
:10303000100140E80012002AF5D1E06BFEF7B0FC69
:103040006663A08DE18D401A81B206E0A18D8142B8
:10305000A8D1D069B842A5D166632046FFF72AFF00
:10306000F8BDA08DE18D401A81B2E08D0028F7D027
:103070000029F5D020680C3050E8002F22F490721F
:1030800040E80027002FF5D12068143050E8002FC9
:1030900022F0010240E80027002FF5D184F84230E9
:1030A000256320680C3050E8002F00E006E022F095
:1030B000100240E80023002BF3D1CDE705062BD505
:1030C000150629D594F841002128C9D1A068B0F58A
:1030D000805F01D12069B0B1206A411C2162216862
:1030E00000784860E08C401E0004000CE084B7D1FA
:1030F0002068C16821F08001C1602068C16841F08A
:103100004001C160F8BD206A0088C0F30800486033
:10311000206A801C2062E5E74006F3D55006F1D511
:10312000CA68204622F04002CA6084F8413000F0AC
:1031300067F9F8BD4142000870B5040004D094F866
:103140004100002510B106E0012070BD84F8405018
:10315000204600F023F8242084F841002068C1684C
:1031600021F40051C160204601F0FAF8206801699D
:1031700021F4904101612068416921F02A014161F7
:103180002068C16841F40051C1606564202084F862
:10319000410084F842006563002070BD2DE9F043D2
:1031A00087B0054614216846FDF714FA4C4B296890
:1031B0004C48022603274C4A0024994264D14949CD
:1031C00010310B6843F480230B60096801F48021FF
:1031D0000591016841F004010160016801F00401FA
:1031E0000591016841F002010160006802AB00F046
:1031F000020005902020CDE900064FF0070983E882
:10320000900269461046FEF773FD02AB4FF48068EA
:1032100083E89002CDE9008669463448FEF768FDF0
:10322000344E33484FF00067E6E802074020A6E836
:103230001101304846F81449B461F4613462746293
:10324000FEF7DAFC08B1FEF79CFAAE63B563294ECF
:103250002748603630383060C6E90174C6E9034853
:103260007461B461F461346230467462FEF7C4FC88
:1032700008B1FEF786FAEE63002211462720B563F7
:10328000FFF794F8272025E01B4B994224D11549DC
:1032900014310B6843F020030B60096801F0200132
:1032A0000591016841F0040101600068029400F09A
:1032B00004000590C020CDE900060820CDE9037088
:1032C00069461046FEF714FD002211464720FFF71D
:1032D0006DF84720FFF75CF807B0BDE8F083000009
:1032E000004800403038024000080240000402401C
:1032F00058600240440200200014014090F842301F
:10330000202B01D00220704721B11AB100230363A2
:1033100001F0ACB8012070470D4910B5884207D1C3
:103320000C48007800F06EF801220A49084809E0CC
:10333000094988420AD10948007800F04FFD074941
:1033400005480122BDE81040FFF7D8BF10BD0000BE
:10335000B401002020000020FC01002025000020F6
:103360002DE9F843044690F84100984616460D466C
:10337000202802D00220BDE8F88385B17EB100206C
:103380006064212084F84100FEF7A6FDA6848146F2
:10339000E684A0682027B0F5805F02D003E001201A
:1033A000E9E7206910B12E4600250EE000260CE06A
:1033B0008021204601F075F8A8B9C6B116F8010BB6
:1033C00021684860E08C401EE084E08C4B464FF062
:1033D0000002CDF800800028EAD14FF040012046DD
:1033E00001F05FF840B184F841700320C3E735F87D
:1033F000020BC0F30800E3E784F841700020BAE74D
:10340000704700002DE9F043804693B0524A53497B
:10341000534800F09DFA504DB5F9000000EE100A37
:103420005048B8EEC00AD0ED000A70EE600A9FED79
:103430004E1A4E4C80EE810AD4ED000A9FED4C1AD4
:10344000464E474F4B484FF0FF39B8F1470F40EE1B
:10345000010AC4ED000A66D009DCB8F1420F21D0A0
:10346000B8F1440F6AD0B8F1460F09D11EE0B8F1A7
:103470004C0F40D0B8F1520F45D0B8F1530F4DD09A
:10348000B0F902203CA103A8FCF794FF03A8FDF7C4
:1034900082F882B24B4603A93F48FFF761FF13B0A1
:1034A000BDE8F0838046B0F9020030E080464088F5
:1034B000404200B222E000BF00F02CFC206801F086
:1034C00003F941EC100BB7F90000B5F90020B6F98B
:1034D00000108DE8070053EC102B30A103A8FCF777
:1034E00069FF03A8FDF757F882B24B4603A92A48A3
:1034F000FFF736FFCAE78046B0F9020000F0E2FBB2
:10350000B8F90200D8E780464088404200B200F097
:10351000D9FBB8F80200404200B2CDE7002000F02D
:10352000D1FB0020C8E7B0F90210642901DA0A31A2
:1035300041806423B0F9022022A109E0B0F9021011
:10354000002901DD0A394180B0F90220002326A1BB
:1035500003A8FCF72FFF99E70400002002000020D9
:10356000000000200C0000200000034308000020A1
:10357000CDCC4C3D20000020756E6B6E6F776E7C5D
:103580002063757272656E745F7370656564203A4E
:103590002025640D0A000000B40100204657442095
:1035A0007C205961773A20252E32662047783A20D0
:1035B00025642047793A20256420477A3A202564FB
:1035C0000D0A0000676F2C63757272656E745F730D
:1035D00070656564207C204D41585F5350454544DB
:1035E0002025640D0A000000646F776E2C637572ED
:1035F00072656E745F73706565643A202564207C23
:10360000204D494E5F53504545442025640D0A0026
:10361000FEE701684A69D24352050FD46FF4806215
:103620004A61002140F8301F2022427381730269F1
:1036300042F00402026101730120704700207047CC
:103640002DE9F84F0446006889460B9D01689846AD
:10365000174641F4806101602068016841F480717F
:10366000016000954FF0011B0022594620460A9B3D
:1036700000F064F84FF4007A40B120680068C0059B
:1036800001D5C4F840A00320BDE8F88F216809F0F7
:10369000FE0008612B46284920460A9A00F096F859
:1036A000F0BB20684169806900902A4620460A994B
:1036B00000F022F940B1206C04283AD1206801685A
:1036C00041F40071016034E0FEB2B8F1010F09D09D
:1036D0002168380A08612A4620460A9900F00CF948
:1036E0000028E8D1206806612A4620460A9900F0A1
:1036F00003F90028DFD12068016841F4807101607E
:1037000000950022594620460A9B00F017F8002831
:10371000B3D1216809F0FF0040F00100086100E02A
:1037200007E02B46044920460A9A00F04FF800288B
:10373000AAD00120A8E70000020001002DE9F0470F
:10374000984617460D460446C1F30746DDF820901B
:103750002AE000BFB8F1FF3F26D0FEF7BDFBA0EB8B
:103760000901414502D8B8F1000F1DD12068012E92
:1037700016D0806925EA00000004000C12D0002059
:10378000B84211D1002044F8300F20216173A0739A
:10379000216941F02001216120730120BDE8F087FB
:1037A0004069E7E70120EBE72068012E0AD0806935
:1037B00025EA00000004000C06D00020B842C9D061
:1037C0000020EBE74069F3E70120F7E72DE9F04738
:1037D000984616460D4604464FF000094FF0200A61
:1037E000C1F3074723E020684069C043400515D472
:1037F0002068016841F40071016021686FF4806005
:103800004861C4F8309084F83DA084F83E90216C63
:1038100041F00401216484F83C9021E0701C06D042
:10382000FEF75AFBA0EB0800B04203D816B1012FF7
:103830001FD021E02068012F15D0806925EA000003
:103840000004000C18D000BF44F8309F84F80DA08D
:1038500084F80E90216941F02001216184F80C90D8
:103860000120BDE8F087406925EA00000004000C53
:10387000EAD12068406901E02068806925EA0000FB
:103880000004000CAFD1ECE72DE9F0410025904693
:103890000E460446202728E04069C043C0060CD4E9
:1038A00054F8301B6FF01000486144F810596777E6
:1038B000A577206A2062257714E0FEF70DFBA0EBC8
:1038C0000800B04200D886B920684069C04340066D
:1038D0000BD544F8305F6773A573206940F0200072
:1038E000206125730120BDE8F08120684169C9434A
:1038F0004906D1D40020F6E770B516460D460446B9
:103900001EE02046FFF785FE08B1012070BD681C4F
:1039100016D0FEF7E1FA801BA84200D885B92068CE
:103920004069C04300060BD5002044F8300F202129
:103930006173A073216941F0200121612073E4E7E4
:1039400020684069C0430006DBD4002070BD000041
:1039500070B586B014460D4606466422062103A8BB
:103960008DE8070001234322D0210848FEF77EFBA3
:10397000BDF80C0040BA3080BDF80E0040BA288077
:10398000BDF8100040BA208006B070BD880000204D
:103990007FB50024154800940194029412490394C1
:1039A00001604FF48031C0E901140461047680F8AD
:1039B00020400F49C0E90A140125C561C46080F8A0
:1039C00030404561FDF792FF08B1FDF7DAFE0220B5
:1039D000CDE90005694602940448FDF7D5FE0028AC
:1039E00001D0FDF7CEFE7FBD002001404000002049
:1039F0000100000F0D4808B5016841F40011016095
:103A00000068002200F40010009011460C20FEF720
:103A1000CDFC0C20FEF7BCFC002211460E20FEF768
:103A2000C5FCBDE808400E20FEF7B2BC30380240AD
:103A300030B587B014216846FCF7CCFD154800244A
:103A4000016841F001010160016801F00101059187
:103A5000016841F004010160016801F00401059171
:103A6000016841F00201016000680B4D00F00200A6
:103A70000590002220212846FEF728FA20200090F9
:103A80000120CDE90104694628460394FEF730F988
:103A900007B030BD30380240000002400D4810B57C
:103AA0000B4901600C49416000214FF48042816064
:103AB000C0E9031241618161C1610162FEF712FA3E
:103AC000002803D0BDE81040FDF75BBE10BD00002C
:103AD0000054004088000020A086010010B58CB082
:103AE00024216846FCF776FD0024154809944FF020
:103AF00080410A9401601121C0E90114611EC0E9EE
:103B0000031484610120CDE90004CDE9020404948A
:103B1000CDE905400794694609480894FEF7DEFFA1
:103B200008B1FDF72EFE099409A905480A94FEF78D
:103B30008DFF002801D0FDF724FE0CB010BD000061
:103B4000DC00002010B58AB0002407941C216846D0
:103B50000894FCF73FFD2248204901601121C0E98B
:103B6000011440F2E731C0E903148461FFF7FCF867
:103B700008B1FDF706FE079407A919480894FEF757
:103B800065FF08B1FDF7FDFD6020CDE9000402945A
:103B90000022694612480494FFF780F808B1FDF747
:103BA000F0FD042269460E48FFF778F808B1FDF7EA
:103BB000E8FD082269460A48FFF770F808B1FDF7EA
:103BC000E0FD0C2269460648FFF768F808B1FDF7EA
:103BD000D8FD0348FFF726F80AB010BD00040040E6
:103BE0002401002010B58CB024216846FCF7F2FCBB
:103BF00000241648099414490A940160B321C0E9CD
:103C000001144FF6FF71C0E9031484610120CDE96E
:103C10000004CDE902040494CDE905400794694607
:103C20000A480894FEF75AFF08B1FDF7AAFD099467
:103C300009A906480A94FEF709FF002801D0FDF7FC
:103C4000A0FD0CB010BD0000000800406C01002079
:103C50000C4810B50A4901604FF41651416000212B
:103C600081600C22C160C0E904128161C161FFF76B
:103C700063FA002803D0BDE81040FDF782BD10BDF7
:103C800000480040B40100200C4810B50A4901600A
:103C90004FF4E1214160002181600C22C160C0E944
:103CA00004128161C161FFF747FA002803D0BDE823
:103CB0001040FDF766BD10BD00140140FC0100205E
:103CC000FEE7000010B5642801DD642007E06FF016
:103CD0006301884201DA084603E0002801DB02465E
:103CE00000E042420A490C46CB6824685B1C5A43F8
:103CF0006423B2FBF3F20023002803DD626308684B
:103D0000836310BD6363FADA0868826310BD000044
:103D10002401002010B5642801DD642007E06FF065
:103D20006301884201DA084603E0002801DB02460D
:103D300000E042420A490C46CB6824685B1C5A43A7
:103D40006423B2FBF3F20023002803DDE26308687A
:103D5000036410BDE363FADA0868026410BD000072
:103D600024010020FEE7000010B5044680EC030AA1
:103D70009FED0E0A80ED030A80ED040A80ED050A2E
:103D800080ED060A80ED070A80ED080A80ED090A39
:103D90002830C0EC041AFEF79FF89FED050AA063D7
:103DA00084ED0F0A012084F8400010BD00000000DF
:103DB0000AD7233C7047000010B56420FDF786FF4A
:103DC000012204490448FFF799FABDE8104000F0C9
:103DD00093B8000025000020FC010020F0B5394C0C
:103DE00000272DED028B95B0217841B1626804F176
:103DF00010018854521C6260052A12D052E0314AE8
:103E0000A16815325054491CA16007294AD1A76006
:103E10001078A52846D150785A2843D10120207027
:103E200040E06760087800F00300012845D1487839
:103E30008A78400802F07F0240EAC21200EE102A9F
:103E4000DFED210AB1F80300B8EE400A20EE208A27
:103E500000EE100AF5EE000AE068B8EE400A401CD9
:103E6000E0600A2820EE200A1CDB10EE100A00F0A9
:103E70002BFC05460E4618EE100A00F025FC0A46FB
:103E80008DE8650011A2402104A8FCF7A7FA04A858
:103E9000FCF781FB82B24FF0FF3304A91448FFF70F
:103EA0005FFAE76015B007490122BDEC028B491C9F
:103EB000BDE8F0400F48FFF721BA15B0BDEC028B0A
:103EC000F0BD0000240000200000803C416E676CC3
:103ED000653A20252E316620646567202044697389
:103EE000743A20252E3166206D6D0D0A0000000009
:103EF000B4010020FC01002008B505A04FF0FF33FD
:103F000000680090022269460248FFF729FA08BDBE
:103F1000A5200000FC0100207047FEF7DFB900007B
:103F200030B593B034216846FCF754FB14210DA83A
:103F3000FCF750FB20480025016841F080510160EA
:103F4000006800F0805012901C48016841F4404124
:103F500001600068022400F44040129001200390A8
:103F600010200490009406940820CDE90750B42056
:103F7000CDE909040B9468460C94FEF787FB08B161
:103F800072B6FEE7FEF744FA08B172B6FEE70DA975
:103F90000F2081E831004FF4A05010904FF4805072
:103FA000119005210DA8FEF76BFA002801D072B61A
:103FB000FEE713B030BD0000403802400070004002
:103FC0000248016841F470010160704788ED00E02B
:103FD000F0B50268274B284D284E294F294C4FF049
:103FE000804C984209D0604507D0A84205D0B04225
:103FF00003D0B84201D0A04204D122F0700E4A682A
:1040000042EA0E0298421BD0604519D0A84217D050
:10401000B04215D0B84213D0A04211D01A4DA842D8
:104020000ED01A4DA8420BD0194DA84208D0194DF8
:10403000A84205D0184DA84202D0184DA84203D17D
:1040400022F44075CA682A434D6922F080022A434F
:104050008D68C5620D688562984201D0A04201D189
:1040600009690163016841F00401016001214161B6
:104070000260F0BD00000140000400400008004064
:10408000000C004000040140004001400044014099
:104090000048014000180040001C00400020004083
:1040A00010B501F01F030121046A99408C4304629A
:1040B000016A9A401143016210BD0000F0B5036A25
:1040C000026A22F00102026242688469124E24F000
:1040D00073050C682C4323F002058B682B430D4DB0
:1040E000A84201D0B04205D123F00807CB683B437A
:1040F00023F00403A84201D0B04205D14D6922F457
:10410000407215438A692A43426084614968416369
:104110000362F0BD0000014000040140F0B5026AF6
:10412000036A23F010030362436884690D6824F472
:10413000E64444EA05248D6822F0200242EA051292
:104140000F4D104EA84201D0B04206D1CF6822F0E8
:10415000800242EA071222F04002A84201D0B04297
:1041600007D14D6923F4406343EA85038D6943EA2F
:10417000850343608461496881630262F0BD000089
:104180000000014000040140F0B5026A036A23F414
:10419000807303624368C46922F4007224F07305DB
:1041A0000C68124E2C438D6842EA05220E4DA8423F
:1041B00001D0B04206D1CF6822F4006242EA072261
:1041C00022F48062A84201D0B04207D14D6923F4A5
:1041D000405343EA05138D6943EA05134360C46104
:1041E0004968C1630262F0BD000001400004014063
:1041F00030B5046A026A22F4805202624268C369DE
:104200000D6823F4E64343EA05238D6824F4005443
:1042100044EA0534084DA84202D0084DA84204D112
:104220004D6922F4804242EA85124260C3614968C6
:104230000164046230BD0000000001400004014040
:1042400010B5806B0021C185FEF735FE10BD0168F9
:104250000C3151E8002F22F4907241E80023002B2A
:10426000F5D10168143151E8002F22F0010241E834
:104270000023002BF5D1016B012909D101680C3114
:1042800051E8002F22F0100241E80023002BF5D165
:10429000202180F8421000210163704708B590F892
:1042A0004210222901D0022008BD82684FF48053B9
:1042B0009A4201D1016921B1816A9A421BD04AB167
:1042C0000AE00268816A5268C2F308020A80816AC1
:1042D000891C08E0026972B10268526802F07F022C
:1042E0000A70816A491C8162C18D491E0904090C4A
:1042F000C18503D01BE002685268F1E70168CA6813
:1043000022F02002CA600168CA6822F48072CA6082
:1043100001684A6922F001024A61202180F84210B6
:1043200000214163026B012A03D0FEF7F5FF002054
:1043300008BD016301680C3151E8002F22F0100222
:1043400041E80023002BF5D101680A68D20602D5A6
:104350000A6849680091818DFEF7ACFDE7E700002F
:1043600070B5044600680169E26821F440511143C8
:1043700001612169A068E26908436169114308434A
:104380002168CA6849F20C639A430243CA602068F4
:104390004169A26921F440711143416131492068AA
:1043A000884202D03049884202D1FEF713F901E079
:1043B000FEF700F9E2690023192164253226B2F5DF
:1043C000004F626828D0A0FB0101930F9200FBF719
:1043D00079FF0146B0FBF5F06FF01802504301EB96
:1043E000800006EB0010B0FBF5F000F0F002B1FB2E
:1043F000F5F002EB0012B1FBF5F06FF01803584333
:1044000001EB800006EB0010B0FBF5F000F00F00B0
:1044100021681044886070BDA0FB010192185B41C7
:10442000FBF750FF0146B0FBF5F00201B1FBF5F0E0
:104430006FF01803584301EB800006EBC000B0FB9F
:10444000F5F000F0F80002EB4002B1FBF5F0584344
:1044500001EB800006EBC000B0FBF5F000F00700B8
:10446000D6E70000001001400014014081628285FF
:10447000C28500214164222180F84210016921B1E6
:104480000168CA6842F48072CA6001684A6942F0F1
:1044900001024A610068C16841F02001C16000204A
:1044A00070472DE9F843984617460D460446089E86
:1044B00024E0701C22D0FDF70FFDA0EB0800B042F5
:1044C0001AD8CEB12068C168490717D5802D15D0FC
:1044D000402D13D00168C94309070FD40168002596
:1044E000406800902046FFF7B2FE0820606484F820
:1044F00040500120BDE8F8830320FBE720680068F6
:1045000035EA000004D00020B842D2D00020F1E704
:104510000120F9E70148FEF7CFBC0000B4010020FC
:104520000148FEF7C9BC0000FC010020FEE703B40F
:1045300001984100009850EAC12018BF04204A0D9C
:1045400018BF40F0010040F2FF72B2EB515F08BFAC
:1045500040F00200012808BF052002B0704709079B
:10456000090E002804DB00F1E02080F800147047F9
:1045700000F00F0000F1E02080F8141D7047303883
:104580000A2801D20120704700207047FDF7AEFED7
:10459000FFF7C6FCFFF74CFAFFF72CFAFFF79EFA7D
:1045A000FFF7F6F9FFF7CEFAFFF71CFBFFF750FB1A
:1045B000FFF774FAFFF768FB00F060F800F004F80A
:1045C000FFF7FAFBFEE7000010B52A482DED088B37
:1045D0009FED218ADFED218A9FED219ADFED219A5F
:1045E0009FED21AADFED21AA9FED21BAB0EE483A56
:1045F000F0EE682AB0EE492AF0EE691AB0EE4A1AD7
:10460000F0EE6A0AB0EE4B0AFFF7AEFB1948B0EEC7
:10461000483AF0EE682AB0EE492AF0EE691AB0EE98
:104620004A1AF0EE6A0AB0EE4B0A4430FFF79CFBE0
:1046300000211148FEF7DAFB04210F48FEF7D6FBF4
:1046400008210D48FEF7D2FBBDEC088B0C21BDE81C
:1046500010400948FEF7CABB00009643000096C30D
:1046600000007A4400007AC4CDCCCC3D0AD7A33CEC
:10467000CDCC4C3F0403002024010020012202493C
:104680000248FEF73BBE000020000020B4010020DD
:1046900010B500290AD00878002807D005487844CA
:1046A000FCF77EFB002801D0002010BD02487844B2
:1046B00010BD0000EE010000E60100000808A0F5B2
:1046C00000114FEA3101704743004FEAD30C4FEA23
:1046D0003C0C43401FBF40070CF1605113F0FE4FEC
:1046E00070471CF0006F03D100200CF000417047B0
:1046F0000CF0004343EA507010B540EACC0000F0E3
:104700000EF800BF000000924FEA0001FFF7D6BF8D
:104710004FF000414FF00000A1F5002170470EF16D
:10472000020E2EF0030E5EF8044B244204D44FEA2E
:104730004102B2F17F4F11D84FEA4003B3F17F4FEE
:104740000CD80ED14FEAD07CB2F17F4F0CEB4C0C61
:104750000CF1020C08BF4CEBD17C04E04FF0080CCC
:1047600001E04FEAD17C0CEB4C0324FA03F404F093
:104770000704B4F1040C06D20EEB840CBDE8104023
:104780004CF0010C6047DFE80CF0070802024FF024
:104790000040A0F5800010BD0846420018BFD2F1CD
:1047A000807288BF00F0004010BD4FF04070E1EE15
:1047B000100A7047FCF76AB80006101600061016BB
:1047C00000000000000000000102030406070809C1
:1047D000000000000102030402400000000000A0ED
:1047E0000000000005400000000000C800000000BC
:1047F0000C4000000000409C000000001940000038
:104800000020BCBE0000000034400000BFC91B8E69
:1048100000000004B5400000504BCFD06607E2CF47
:10482000010000006C4100003E8251AADFEEA73477
:1048300001000000D9420000DCB5A0E23A301F9729
:10484000FFFFFFFFB4450000FD25A0C8E9A3C14F4D
:10485000FFFFFFFFFF3F000000000080000000009E
:10486000FF3F00000000008000000000A848000892
:10487000000000204000000000020008E848000896
:1048800040000020B00900001C0200081C000000CD
:1048900043000000F8FFFFFF0C0000000E000000C6
:1048A0000F0000002E0000000000000000000000CB
:1048B00000000000000000000100000010000000E7
:1048C000000000000024F40000003200000000009E
:1048D00000000000000000000000000000000000D8
:0848E0000000000000000000D0
:04000005080001C529
:00000001FF
